{
    "contractName": "MetaStocksCompanyManager",
    "abi": [
        {
            "anonymous": false,
            "inputs": [
                {
                    "indexed": true,
                    "internalType": "address",
                    "name": "owner",
                    "type": "address"
                },
                {
                    "indexed": true,
                    "internalType": "address",
                    "name": "spender",
                    "type": "address"
                },
                {
                    "indexed": false,
                    "internalType": "uint256",
                    "name": "value",
                    "type": "uint256"
                }
            ],
            "name": "Approval",
            "type": "event"
        },
        {
            "anonymous": false,
            "inputs": [
                {
                    "indexed": true,
                    "internalType": "address",
                    "name": "account",
                    "type": "address"
                },
                {
                    "indexed": false,
                    "internalType": "uint256",
                    "name": "companyId",
                    "type": "uint256"
                }
            ],
            "name": "CreateCompany",
            "type": "event"
        },
        {
            "anonymous": false,
            "inputs": [
                {
                    "indexed": false,
                    "internalType": "uint8",
                    "name": "version",
                    "type": "uint8"
                }
            ],
            "name": "Initialized",
            "type": "event"
        },
        {
            "anonymous": false,
            "inputs": [
                {
                    "indexed": true,
                    "internalType": "address",
                    "name": "previousOwner",
                    "type": "address"
                },
                {
                    "indexed": true,
                    "internalType": "address",
                    "name": "newOwner",
                    "type": "address"
                }
            ],
            "name": "OwnershipTransferred",
            "type": "event"
        },
        {
            "anonymous": false,
            "inputs": [
                {
                    "indexed": true,
                    "internalType": "address",
                    "name": "from",
                    "type": "address"
                },
                {
                    "indexed": true,
                    "internalType": "address",
                    "name": "to",
                    "type": "address"
                },
                {
                    "indexed": false,
                    "internalType": "uint256",
                    "name": "value",
                    "type": "uint256"
                }
            ],
            "name": "Transfer",
            "type": "event"
        },
        {
            "inputs": [
                {
                    "internalType": "address",
                    "name": "owner",
                    "type": "address"
                },
                {
                    "internalType": "address",
                    "name": "spender",
                    "type": "address"
                }
            ],
            "name": "allowance",
            "outputs": [
                {
                    "internalType": "uint256",
                    "name": "",
                    "type": "uint256"
                }
            ],
            "stateMutability": "view",
            "type": "function"
        },
        {
            "inputs": [
                {
                    "internalType": "address",
                    "name": "spender",
                    "type": "address"
                },
                {
                    "internalType": "uint256",
                    "name": "amount",
                    "type": "uint256"
                }
            ],
            "name": "approve",
            "outputs": [
                {
                    "internalType": "bool",
                    "name": "",
                    "type": "bool"
                }
            ],
            "stateMutability": "nonpayable",
            "type": "function"
        },
        {
            "inputs": [
                {
                    "internalType": "address",
                    "name": "account",
                    "type": "address"
                }
            ],
            "name": "balanceOf",
            "outputs": [
                {
                    "internalType": "uint256",
                    "name": "",
                    "type": "uint256"
                }
            ],
            "stateMutability": "view",
            "type": "function"
        },
        {
            "inputs": [
                {
                    "internalType": "address",
                    "name": "",
                    "type": "address"
                }
            ],
            "name": "ceos",
            "outputs": [
                {
                    "internalType": "bool",
                    "name": "",
                    "type": "bool"
                }
            ],
            "stateMutability": "view",
            "type": "function"
        },
        {
            "inputs": [
                {
                    "internalType": "address",
                    "name": "",
                    "type": "address"
                }
            ],
            "name": "ceosCompanies",
            "outputs": [
                {
                    "internalType": "uint256",
                    "name": "",
                    "type": "uint256"
                }
            ],
            "stateMutability": "view",
            "type": "function"
        },
        {
            "inputs": [
                {
                    "internalType": "uint256",
                    "name": "",
                    "type": "uint256"
                }
            ],
            "name": "companiesCeos",
            "outputs": [
                {
                    "internalType": "address",
                    "name": "",
                    "type": "address"
                }
            ],
            "stateMutability": "view",
            "type": "function"
        },
        {
            "inputs": [],
            "name": "createCompany",
            "outputs": [],
            "stateMutability": "payable",
            "type": "function"
        },
        {
            "inputs": [],
            "name": "createFranchise",
            "outputs": [],
            "stateMutability": "payable",
            "type": "function"
        },
        {
            "inputs": [],
            "name": "createFranchiseUsingBNB",
            "outputs": [],
            "stateMutability": "payable",
            "type": "function"
        },
        {
            "inputs": [],
            "name": "decimals",
            "outputs": [
                {
                    "internalType": "uint8",
                    "name": "",
                    "type": "uint8"
                }
            ],
            "stateMutability": "view",
            "type": "function"
        },
        {
            "inputs": [
                {
                    "internalType": "address",
                    "name": "spender",
                    "type": "address"
                },
                {
                    "internalType": "uint256",
                    "name": "subtractedValue",
                    "type": "uint256"
                }
            ],
            "name": "decreaseAllowance",
            "outputs": [
                {
                    "internalType": "bool",
                    "name": "",
                    "type": "bool"
                }
            ],
            "stateMutability": "nonpayable",
            "type": "function"
        },
        {
            "inputs": [
                {
                    "internalType": "uint256",
                    "name": "companyId",
                    "type": "uint256"
                }
            ],
            "name": "getCompanyCEOAddress",
            "outputs": [
                {
                    "internalType": "address",
                    "name": "",
                    "type": "address"
                }
            ],
            "stateMutability": "view",
            "type": "function"
        },
        {
            "inputs": [
                {
                    "internalType": "address",
                    "name": "_account",
                    "type": "address"
                }
            ],
            "name": "getCompanyId",
            "outputs": [
                {
                    "internalType": "uint256",
                    "name": "",
                    "type": "uint256"
                }
            ],
            "stateMutability": "view",
            "type": "function"
        },
        {
            "inputs": [
                {
                    "internalType": "address",
                    "name": "spender",
                    "type": "address"
                },
                {
                    "internalType": "uint256",
                    "name": "addedValue",
                    "type": "uint256"
                }
            ],
            "name": "increaseAllowance",
            "outputs": [
                {
                    "internalType": "bool",
                    "name": "",
                    "type": "bool"
                }
            ],
            "stateMutability": "nonpayable",
            "type": "function"
        },
        {
            "inputs": [
                {
                    "internalType": "address",
                    "name": "_metaStocksCompanyAddress",
                    "type": "address"
                },
                {
                    "internalType": "address",
                    "name": "_metaStocksFranchiseManagerAddress",
                    "type": "address"
                }
            ],
            "name": "initialize",
            "outputs": [],
            "stateMutability": "nonpayable",
            "type": "function"
        },
        {
            "inputs": [
                {
                    "internalType": "address",
                    "name": "_account",
                    "type": "address"
                }
            ],
            "name": "isCeo",
            "outputs": [
                {
                    "internalType": "bool",
                    "name": "",
                    "type": "bool"
                }
            ],
            "stateMutability": "view",
            "type": "function"
        },
        {
            "inputs": [],
            "name": "name",
            "outputs": [
                {
                    "internalType": "string",
                    "name": "",
                    "type": "string"
                }
            ],
            "stateMutability": "view",
            "type": "function"
        },
        {
            "inputs": [
                {
                    "internalType": "address",
                    "name": "",
                    "type": "address"
                },
                {
                    "internalType": "address",
                    "name": "",
                    "type": "address"
                },
                {
                    "internalType": "uint256[]",
                    "name": "",
                    "type": "uint256[]"
                },
                {
                    "internalType": "uint256[]",
                    "name": "",
                    "type": "uint256[]"
                },
                {
                    "internalType": "bytes",
                    "name": "",
                    "type": "bytes"
                }
            ],
            "name": "onERC1155BatchReceived",
            "outputs": [
                {
                    "internalType": "bytes4",
                    "name": "",
                    "type": "bytes4"
                }
            ],
            "stateMutability": "nonpayable",
            "type": "function"
        },
        {
            "inputs": [
                {
                    "internalType": "address",
                    "name": "",
                    "type": "address"
                },
                {
                    "internalType": "address",
                    "name": "",
                    "type": "address"
                },
                {
                    "internalType": "uint256",
                    "name": "",
                    "type": "uint256"
                },
                {
                    "internalType": "uint256",
                    "name": "",
                    "type": "uint256"
                },
                {
                    "internalType": "bytes",
                    "name": "",
                    "type": "bytes"
                }
            ],
            "name": "onERC1155Received",
            "outputs": [
                {
                    "internalType": "bytes4",
                    "name": "",
                    "type": "bytes4"
                }
            ],
            "stateMutability": "nonpayable",
            "type": "function"
        },
        {
            "inputs": [],
            "name": "owner",
            "outputs": [
                {
                    "internalType": "address",
                    "name": "",
                    "type": "address"
                }
            ],
            "stateMutability": "view",
            "type": "function"
        },
        {
            "inputs": [],
            "name": "renounceOwnership",
            "outputs": [],
            "stateMutability": "nonpayable",
            "type": "function"
        },
        {
            "inputs": [
                {
                    "internalType": "bytes4",
                    "name": "interfaceId",
                    "type": "bytes4"
                }
            ],
            "name": "supportsInterface",
            "outputs": [
                {
                    "internalType": "bool",
                    "name": "",
                    "type": "bool"
                }
            ],
            "stateMutability": "view",
            "type": "function"
        },
        {
            "inputs": [],
            "name": "symbol",
            "outputs": [
                {
                    "internalType": "string",
                    "name": "",
                    "type": "string"
                }
            ],
            "stateMutability": "view",
            "type": "function"
        },
        {
            "inputs": [],
            "name": "totalSupply",
            "outputs": [
                {
                    "internalType": "uint256",
                    "name": "",
                    "type": "uint256"
                }
            ],
            "stateMutability": "view",
            "type": "function"
        },
        {
            "inputs": [
                {
                    "internalType": "address",
                    "name": "to",
                    "type": "address"
                },
                {
                    "internalType": "uint256",
                    "name": "amount",
                    "type": "uint256"
                }
            ],
            "name": "transfer",
            "outputs": [
                {
                    "internalType": "bool",
                    "name": "",
                    "type": "bool"
                }
            ],
            "stateMutability": "nonpayable",
            "type": "function"
        },
        {
            "inputs": [
                {
                    "internalType": "address",
                    "name": "from",
                    "type": "address"
                },
                {
                    "internalType": "address",
                    "name": "to",
                    "type": "address"
                },
                {
                    "internalType": "uint256",
                    "name": "amount",
                    "type": "uint256"
                }
            ],
            "name": "transferFrom",
            "outputs": [
                {
                    "internalType": "bool",
                    "name": "",
                    "type": "bool"
                }
            ],
            "stateMutability": "nonpayable",
            "type": "function"
        },
        {
            "inputs": [
                {
                    "internalType": "address",
                    "name": "newOwner",
                    "type": "address"
                }
            ],
            "name": "transferOwnership",
            "outputs": [],
            "stateMutability": "nonpayable",
            "type": "function"
        }
    ],
    "bytecode": "608060405234801561001057600080fd5b506115a6806100206000396000f3fe60806040526004361061019c5760003560e01c8063715018a6116100ec578063d6f343c51161008a578063e3d1317a11610064578063e3d1317a14610504578063f23a6e611461050c578063f2fde38b14610538578063f81a12d71461055857600080fd5b8063d6f343c514610478578063dc8dccc6146104ae578063dd62ed3e146104e457600080fd5b8063a457c2d7116100c6578063a457c2d7146103bd578063a9059cbb146103dd578063bc083917146103fd578063bc197c811461043357600080fd5b8063715018a6146103615780638da5cb5b1461037657806395d89b41146103a857600080fd5b806321203038116101595780633945fd88116101335780633945fd88146102e357806339509351146102eb578063485cc9551461030b57806370a082311461032b57600080fd5b8063212030381461027a57806323b872dd146102a7578063313ce567146102c757600080fd5b806301ffc9a7146101a157806306fdde03146101d6578063095ea7b3146101f85780630e98caf2146102185780631165e6ab1461022257806318160ddd1461025b575b600080fd5b3480156101ad57600080fd5b506101c16101bc36600461108d565b610588565b60405190151581526020015b60405180910390f35b3480156101e257600080fd5b506101eb610599565b6040516101cd91906110be565b34801561020457600080fd5b506101c161021336600461112a565b61062b565b610220610643565b005b34801561022e57600080fd5b506101c161023d366004611154565b6001600160a01b03166000908152609b602052604090205460ff1690565b34801561026757600080fd5b506035545b6040519081526020016101cd565b34801561028657600080fd5b5061026c610295366004611154565b60996020526000908152604090205481565b3480156102b357600080fd5b506101c16102c236600461116f565b61077b565b3480156102d357600080fd5b50604051601281526020016101cd565b61022061079f565b3480156102f757600080fd5b506101c161030636600461112a565b610844565b34801561031757600080fd5b506102206103263660046111ab565b610866565b34801561033757600080fd5b5061026c610346366004611154565b6001600160a01b031660009081526033602052604090205490565b34801561036d57600080fd5b5061022061090a565b34801561038257600080fd5b506065546001600160a01b03165b6040516001600160a01b0390911681526020016101cd565b3480156103b457600080fd5b506101eb610975565b3480156103c957600080fd5b506101c16103d836600461112a565b610984565b3480156103e957600080fd5b506101c16103f836600461112a565b6109ff565b34801561040957600080fd5b506103906104183660046111de565b609a602052600090815260409020546001600160a01b031681565b34801561043f57600080fd5b5061045f61044e36600461132e565b63bc197c8160e01b95945050505050565b6040516001600160e01b031990911681526020016101cd565b34801561048457600080fd5b5061026c610493366004611154565b6001600160a01b031660009081526099602052604090205490565b3480156104ba57600080fd5b506103906104c93660046111de565b6000908152609a60205260409020546001600160a01b031690565b3480156104f057600080fd5b5061026c6104ff3660046111ab565b610a0d565b610220610a38565b34801561051857600080fd5b5061045f6105273660046113d8565b63f23a6e6160e01b95945050505050565b34801561054457600080fd5b50610220610553366004611154565b610b48565b34801561056457600080fd5b506101c1610573366004611154565b609b6020526000908152604090205460ff1681565b600061059382610c13565b92915050565b6060603680546105a89061143d565b80601f01602080910402602001604051908101604052809291908181526020018280546105d49061143d565b80156106215780601f106105f657610100808354040283529160200191610621565b820191906000526020600020905b81548152906001019060200180831161060457829003601f168201915b5050505050905090565b600033610639818585610c48565b5060019392505050565b336000908152609b602052604090205460ff166106ae57306001600160a01b031663e3d1317a6040518163ffffffff1660e01b8152600401600060405180830381600087803b15801561069557600080fd5b505af11580156106a9573d6000803e3d6000fd5b505050505b60985460405163d6f343c560e01b81523360048201526001600160a01b039091169063c9d8224d908290309063d6f343c5906024015b602060405180830381865afa158015610701573d6000803e3d6000fd5b505050506040513d601f19601f820116820180604052508101906107259190611477565b6000806040518563ffffffff1660e01b81526004016107479493929190611490565b600060405180830381600087803b15801561076157600080fd5b505af1158015610775573d6000803e3d6000fd5b50505050565b600033610789858285610d6c565b610794858585610de0565b506001949350505050565b336000908152609b602052604090205460ff1661080a57306001600160a01b031663e3d1317a6040518163ffffffff1660e01b8152600401600060405180830381600087803b1580156107f157600080fd5b505af1158015610805573d6000803e3d6000fd5b505050505b60985460405163d6f343c560e01b81523360048201526001600160a01b039091169063fbf3176f908290309063d6f343c5906024016106e4565b6000336106398185856108578383610a0d565b61086191906114f1565b610c48565b60006108726001610fae565b9050801561088a576000805461ff0019166101001790555b609780546001600160a01b038086166001600160a01b03199283161790925560988054928516929091169190911790556000609c558015610905576000805461ff0019169055604051600181527f7f26b83ff96e1f2b6a682f133852f6798a09c465da95921460cefb38474024989060200160405180910390a15b505050565b6065546001600160a01b031633146109695760405162461bcd60e51b815260206004820181905260248201527f4f776e61626c653a2063616c6c6572206973206e6f7420746865206f776e657260448201526064015b60405180910390fd5b610973600061103b565b565b6060603780546105a89061143d565b600033816109928286610a0d565b9050838110156109f25760405162461bcd60e51b815260206004820152602560248201527f45524332303a2064656372656173656420616c6c6f77616e63652062656c6f77604482015264207a65726f60d81b6064820152608401610960565b6107948286868403610c48565b600033610639818585610de0565b6001600160a01b03918216600090815260346020908152604080832093909416825291909152205490565b6097546040516340d097c360e01b81523360048201526000916001600160a01b0316906340d097c3906024016020604051808303816000875af1158015610a83573d6000803e3d6000fd5b505050506040513d601f19601f82011682018060405250810190610aa79190611477565b336000818152609960209081526040808320859055848352609a825280832080546001600160a01b03191685179055928252609b9052908120805460ff19166001179055609c805492935090610afc83611509565b9091555050336000818152609960209081526040918290205491519182527fe38265a604917a38d3b0f82f061e30793a578a7181d8b0d880e84ec70b0da81a910160405180910390a250565b6065546001600160a01b03163314610ba25760405162461bcd60e51b815260206004820181905260248201527f4f776e61626c653a2063616c6c6572206973206e6f7420746865206f776e65726044820152606401610960565b6001600160a01b038116610c075760405162461bcd60e51b815260206004820152602660248201527f4f776e61626c653a206e6577206f776e657220697320746865207a65726f206160448201526564647265737360d01b6064820152608401610960565b610c108161103b565b50565b60006001600160e01b03198216630271189760e51b148061059357506301ffc9a760e01b6001600160e01b0319831614610593565b6001600160a01b038316610caa5760405162461bcd60e51b8152602060048201526024808201527f45524332303a20617070726f76652066726f6d20746865207a65726f206164646044820152637265737360e01b6064820152608401610960565b6001600160a01b038216610d0b5760405162461bcd60e51b815260206004820152602260248201527f45524332303a20617070726f766520746f20746865207a65726f206164647265604482015261737360f01b6064820152608401610960565b6001600160a01b0383811660008181526034602090815260408083209487168084529482529182902085905590518481527f8c5be1e5ebec7d5bd14f71427d1e84f3dd0314c0f7b2291e5b200ac8c7c3b925910160405180910390a3505050565b6000610d788484610a0d565b905060001981146107755781811015610dd35760405162461bcd60e51b815260206004820152601d60248201527f45524332303a20696e73756666696369656e7420616c6c6f77616e63650000006044820152606401610960565b6107758484848403610c48565b6001600160a01b038316610e445760405162461bcd60e51b815260206004820152602560248201527f45524332303a207472616e736665722066726f6d20746865207a65726f206164604482015264647265737360d81b6064820152608401610960565b6001600160a01b038216610ea65760405162461bcd60e51b815260206004820152602360248201527f45524332303a207472616e7366657220746f20746865207a65726f206164647260448201526265737360e81b6064820152608401610960565b6001600160a01b03831660009081526033602052604090205481811015610f1e5760405162461bcd60e51b815260206004820152602660248201527f45524332303a207472616e7366657220616d6f756e7420657863656564732062604482015265616c616e636560d01b6064820152608401610960565b6001600160a01b03808516600090815260336020526040808220858503905591851681529081208054849290610f559084906114f1565b92505081905550826001600160a01b0316846001600160a01b03167fddf252ad1be2c89b69c2b068fc378daa952ba7f163c4a11628f55a4df523b3ef84604051610fa191815260200190565b60405180910390a3610775565b60008054610100900460ff1615610ff5578160ff166001148015610fd15750303b155b610fed5760405162461bcd60e51b815260040161096090611522565b506000919050565b60005460ff80841691161061101c5760405162461bcd60e51b815260040161096090611522565b506000805460ff191660ff92909216919091179055600190565b919050565b606580546001600160a01b038381166001600160a01b0319831681179093556040519116919082907f8be0079c531659141344cd1fd0a4f28419497f9722a3daafe3b4186f6b6457e090600090a35050565b60006020828403121561109f57600080fd5b81356001600160e01b0319811681146110b757600080fd5b9392505050565b600060208083528351808285015260005b818110156110eb578581018301518582016040015282016110cf565b818111156110fd576000604083870101525b50601f01601f1916929092016040019392505050565b80356001600160a01b038116811461103657600080fd5b6000806040838503121561113d57600080fd5b61114683611113565b946020939093013593505050565b60006020828403121561116657600080fd5b6110b782611113565b60008060006060848603121561118457600080fd5b61118d84611113565b925061119b60208501611113565b9150604084013590509250925092565b600080604083850312156111be57600080fd5b6111c783611113565b91506111d560208401611113565b90509250929050565b6000602082840312156111f057600080fd5b5035919050565b634e487b7160e01b600052604160045260246000fd5b604051601f8201601f1916810167ffffffffffffffff81118282101715611236576112366111f7565b604052919050565b600082601f83011261124f57600080fd5b8135602067ffffffffffffffff82111561126b5761126b6111f7565b8160051b61127a82820161120d565b928352848101820192828101908785111561129457600080fd5b83870192505b848310156112b35782358252918301919083019061129a565b979650505050505050565b600082601f8301126112cf57600080fd5b813567ffffffffffffffff8111156112e9576112e96111f7565b6112fc601f8201601f191660200161120d565b81815284602083860101111561131157600080fd5b816020850160208301376000918101602001919091529392505050565b600080600080600060a0868803121561134657600080fd5b61134f86611113565b945061135d60208701611113565b9350604086013567ffffffffffffffff8082111561137a57600080fd5b61138689838a0161123e565b9450606088013591508082111561139c57600080fd5b6113a889838a0161123e565b935060808801359150808211156113be57600080fd5b506113cb888289016112be565b9150509295509295909350565b600080600080600060a086880312156113f057600080fd5b6113f986611113565b945061140760208701611113565b93506040860135925060608601359150608086013567ffffffffffffffff81111561143157600080fd5b6113cb888289016112be565b600181811c9082168061145157607f821691505b60208210810361147157634e487b7160e01b600052602260045260246000fd5b50919050565b60006020828403121561148957600080fd5b5051919050565b6001600160a01b0385168152602081018490526040810183905260808101601a83106114cc57634e487b7160e01b600052602160045260246000fd5b82606083015295945050505050565b634e487b7160e01b600052601160045260246000fd5b60008219821115611504576115046114db565b500190565b60006001820161151b5761151b6114db565b5060010190565b6020808252602e908201527f496e697469616c697a61626c653a20636f6e747261637420697320616c72656160408201526d191e481a5b9a5d1a585b1a5e995960921b60608201526080019056fea26469706673582212209b07ad6c24a1f0de80cf729e3eef93e67622d62040c64224b9b1e4c70d8f560064736f6c634300080f0033",
    "sourcePath": "/home/nkt/Desktop/metaStoksContracts/contracts/managers/metastocks/MetaStocksCompanyManager.sol",
    "compiler": {
        "name": "solc",
        "version": "0.8.15+commit.e14f2714"
    },
    "functionHashes": {
        "allowance(address,address)": "dd62ed3e",
        "approve(address,uint256)": "095ea7b3",
        "balanceOf(address)": "70a08231",
        "ceos(address)": "f81a12d7",
        "ceosCompanies(address)": "21203038",
        "companiesCeos(uint256)": "bc083917",
        "createCompany()": "e3d1317a",
        "createFranchise()": "0e98caf2",
        "createFranchiseUsingBNB()": "3945fd88",
        "decimals()": "313ce567",
        "decreaseAllowance(address,uint256)": "a457c2d7",
        "getCompanyCEOAddress(uint256)": "dc8dccc6",
        "getCompanyId(address)": "d6f343c5",
        "increaseAllowance(address,uint256)": "39509351",
        "initialize(address,address)": "485cc955",
        "isCeo(address)": "1165e6ab",
        "name()": "06fdde03",
        "onERC1155BatchReceived(address,address,uint256[],uint256[],bytes)": "bc197c81",
        "onERC1155Received(address,address,uint256,uint256,bytes)": "f23a6e61",
        "owner()": "8da5cb5b",
        "renounceOwnership()": "715018a6",
        "supportsInterface(bytes4)": "01ffc9a7",
        "symbol()": "95d89b41",
        "totalSupply()": "18160ddd",
        "transfer(address,uint256)": "a9059cbb",
        "transferFrom(address,address,uint256)": "23b872dd",
        "transferOwnership(address)": "f2fde38b"
    },
    "gasEstimates": {
        "creation": {
            "codeDepositCost": "1108400",
            "executionCost": "1154",
            "totalCost": "1109554"
        },
        "external": {
            "allowance(address,address)": "infinite",
            "approve(address,uint256)": "24658",
            "balanceOf(address)": "2648",
            "ceos(address)": "2630",
            "ceosCompanies(address)": "2565",
            "companiesCeos(uint256)": "2566",
            "createCompany()": "infinite",
            "createFranchise()": "infinite",
            "createFranchiseUsingBNB()": "infinite",
            "decimals()": "267",
            "decreaseAllowance(address,uint256)": "26984",
            "getCompanyCEOAddress(uint256)": "2544",
            "getCompanyId(address)": "2582",
            "increaseAllowance(address,uint256)": "27034",
            "initialize(address,address)": "infinite",
            "isCeo(address)": "2650",
            "name()": "infinite",
            "onERC1155BatchReceived(address,address,uint256[],uint256[],bytes)": "infinite",
            "onERC1155Received(address,address,uint256,uint256,bytes)": "infinite",
            "owner()": "2388",
            "renounceOwnership()": "28163",
            "supportsInterface(bytes4)": "infinite",
            "symbol()": "infinite",
            "totalSupply()": "2415",
            "transfer(address,uint256)": "51232",
            "transferFrom(address,address,uint256)": "infinite",
            "transferOwnership(address)": "28400"
        }
    }
}